:100000000C945A080C94A1080C94A1080C94A10813
:100010000C94A1080C94A1080C94A1080C94A108BC
:100020000C94A1080C94A1080C946B220C943F230F
:100030000C94E0190C94A1080C94A1080C94A1084C
:100040000C94A1080C94A1080C94A1080C94A1088C
:100050000C94A1080C94461A0C94A1080C94A108C5
:100060000C94A1080C94A1080C94A1080C94A1086C
:100070000C94A1080C94A1080C94A1080C94A1085C
:100080000C94A1080C94A1080C94A1080C94A1084C
:100090000C94A1080C94A1080C94A1080C94A1083C
:1000A0000C94A1080C94A1080C94A10801E001098A
:1000B00002E002090001E00119021902E002190040
:1000C00001E0010602E00206000030000029001EE7
:1000D000001F002000210022002300000024002532
:1000E00000260027002D002E0031004C004A0001A0
:1000F0003000002B00140000001A00080015001743
:100100000000001C0018000C00120013002F00302B
:10011000002A004D000230000039000400000016E3
:1001200000070009000A0000000B000D000E000F80
:100130000000003300340028004B0000000000E104
:10014000001D0000001B0006001900050000001142
:100150000010003600000037003800E100520000B7
:100160000000000000E00000000000E20000002CA1
:1001700000015100002C00000000000000E200001F
:1001800000500051004F000000000000000000007F
:10019000000000000000000000000000000000005F
:1001A000000000000000000000000000000100004E
:1001B0000001003A003B003C003D003E003F0000D3
:1001C000004000410042004300440045000100019E
:1001D000004B000100000000700100000001000160
:1001E0000001000100000001000100010001000108
:1001F000000100010001004E004600000001000166
:1002000000000001000100010001000000010001E8
:100210000001000100000001000100010046000093
:100220000000000100010000000100010001004C7D
:1002300000000001000100010000000100010001B8
:1002400000010000000000000001000000000000AC
:100250000800000100010000000100000000000093
:10026000000100000001000100010000000000008A
:10027000000000000000000000000000000000007E
:10028000000000000000000000000000000000006E
:100290000001000000010001000100010001000157
:1002A0000001000000010001000100010001000147
:1002B0000001000100010001000000010001000038
:1002C0000001000100010001000000010001000127
:1002D0000001000100010001000100010001000017
:1002E0000001000100000001000100010001000008
:1002F00000010001000100010000000100010001F7
:1003000000010000000000010001000000010001E8
:1003100000010001000000010001000100000001D7
:1003200000010001000100000000000000010000C9
:1003300000000001000000010001000000010000B9
:1003400000000000000100000001000100010000A9
:10035000000000000000000000000000000000009D
:10036000000000000000000000000000000000008D
:100370000000000000010000000100010001000178
:100380000001000100010000000100010001000166
:100390000001000100010001000100010000000156
:1003A0000001000000010001000100010000000147
:1003B0000001000100010001000100010001000135
:1003C0000001000000010001000000010001000127
:1003D0000001000000010001000100010000000117
:1003E0000001000100010000000000010001000008
:1003F00000010001000100010000000100010001F6
:1004000000000001000100010001000000000000E8
:1004100000010000000000010000000100010000D8
:1004200000010000000000000001000000010001C8
:1004300000010000000000000000000000000000BB
:1004400000000000000000000000000000000000AC
:100450000000000000000000000100000001000199
:100460000001000100010001000100000001000185
:100470000001000100010001000100010001000174
:100480000000000100010000000100010001000166
:100490000000000100010001000100010001000155
:1004A0000001000100010000000100010000000146
:1004B0000001000100010000000100010001000135
:1004C0000000000100010001000100000000000127
:1004D0000001000000010001000100010000000116
:1004E0000001000100000001000100010001000006
:1004F00000000000000100000000000100000001F9
:1005000000010000000100000000000000010000E8
:1005100000010001000100000000000000000000D8
:1005200000000000000000000000000000000000CB
:1005300000000000000000000000000000010000BA
:1005400000010001000100010001000100010000A4
:100550000001000100010001000100010001000193
:100560000001000100000001000100000001000185
:100570000001000100000001000100010001000174
:100580000001000100010001000100000001000164
:100590000000000100010001000100000001000155
:1005A0000001000100000001000100010001000045
:1005B0000000000100010000000100010001000135
:1005C0000000000100010001000000010001000125
:1005D0000001000000000000000100000000000118
:1005E0000000000100010000000100000000000008
:1005F00000010000000100010001000000000000F7
:1006000000000000000000000000000000000000EA
:1006100000000000000000000000000000000000DA
:1006200000010000000100010001000100010001C3
:1006300000010000000100010001000100010001B3
:1006400000010001000100010000000100010000A4
:100650000001000100010001000000010001000193
:100660000001000100010001000100010001000083
:100670000001000100000001000100010001000074
:100680000001000100010001000000010001000163
:100690000001000000000001000100000001000155
:1006A0000001000100000001000100010000000144
:1006B0000001000100010000000000000001000036
:1006C0000000000100000001000100000001000026
:1006D0000000000000010000000100010001000016
:1006E000000000000000000000000000000000000A
:1006F00000000000000000000000000000000000FA
:1007000000000000000100000001000100010001E4
:1007100000010001000100000001000100010001D2
:1007200000010001000100010001000100000001C2
:1007300000010000000100010001000100000001B3
:1007400000010001000100010001000100010001A1
:100750000001000000010001000000010001000193
:100760000001000000010001000100010000000183
:100770000001000100010000000000010001000074
:100780000001000100010001000000010001000162
:100790000000000100010001000100000000000055
:1007A0000001000000000001000000010001000045
:1007B0000001000000000000000100000001000135
:1007C0000001000000000000000000000000000028
:1007D0000000000000000000000000000000000019
:1007E0000000000000000000000100000001000106
:1007F00000010001000100010001000000010001F2
:1008000000010001000100010001000100010001E0
:1008100000000001000100000001000100010001D2
:1008200000000001000100010001000100010001C1
:1008300000010001000100000001000100000001B2
:1008400000010001000100000001000100010001A1
:100850000000000100010001000100000000000193
:100860000001000000010001000100010000000182
:100870000001000100000001000100010001000072
:100880000000000000010000000000010000000165
:100890000001000000010000000000000001000055
:1008A0000001000100010000000000000000000045
:1008B0000000000000000000000000000000000038
:1008C0000000000000000000000000000001000027
:1008D0000001000100010001000100010001000011
:1008E0000001000100010001000100010001000100
:1008F00000010001000000010001000000010001F2
:1009000000010001000000010001000100010001E0
:1009100000010001000100010001000000010001D0
:1009200000000001000100010001000000010001C1
:1009300000010001000000010001000100010000B1
:1009400000000001000100000001000100010001A1
:100950000000000100010001000000010001000191
:100960000001000000000000000100000000000184
:100970000000000100010000000100000000000074
:100980000001000000010001000100000000000063
:100990000000000000000000000000000000000057
:1009A0000000000000000000000000000000000047
:1009B0000001000000010001000100010001000130
:1009C0000001000000010001000100010001000120
:1009D0000001000100010001000000010001000011
:1009E0000001000100010001000000010001000100
:1009F00000010001000100010001000100010000F0
:100A000000010001000000010001000100010000E0
:100A100000010001000100010000000100010001CF
:100A200000010000000000010001000000010001C1
:100A300000010001000000010001000100000001B0
:100A400000010001000100000000000000010000A2
:100A50000000000100000001000100000001000092
:100A60000000000000010000000100010001000082
:100A70000000000000000000000000000000000076
:100A80000000000000000000000000000000000066
:100A90000000000000010000000100010001000151
:100AA000000100010001000000010001000100013F
:100AB000000100010001000100010001000000012F
:100AC0000001000000010001000100010000000120
:100AD000000100010001000100010001000100010E
:100AE0000001000000010001000000010001000100
:100AF00000010000000100010001000100000001F0
:100B000000010001000100000000000100010000E0
:100B100000010001000100010000000100010001CE
:100B200000000001000100010001000000000000C1
:100B300000010000000000010000000100010000B1
:100B400000010000000000000001000000010001A1
:100B50000001000000000000000000000000000094
:100B60000000000000000000000000000000000085
:100B70000000000000000000000100000001000172
:100B8000000100010001000100010000000100015E
:100B9000000100010001000100010001000100014D
:100BA000000000010001000000010001000100013F
:100BB000000000010001000100010001000100012E
:100BC000000100010001000000010001000000011F
:100BD000000100010001000000010001000100010E
:100BE0000000000100010001000100000000000100
:100BF00000010000000100010001000100000001EF
:100C000000010001000000010001000100010000DE
:100C100000000000000100000000000100000001D1
:100C200000010000000100000000000000010000C1
:100C300000010001000100000000000000000000B1
:100C400000000000000000000000000000000000A4
:100C50000000000000000000000000000001000093
:100C6000000100010001000100010001000100007D
:100C7000000100010001000100010001000100016C
:100C8000000100010000000100010000000100015E
:100C9000000100010000000100010001000100014D
:100CA000000100010001000100010000000100013D
:100CB000000000010001000100010000000100012E
:100CC000000100010000000100010001000100001E
:100CD000000000010001000000010001000100010E
:100CE00000000001000100010000000100010001FE
:100CF00000010000000000000001000000000001F1
:100D000000000001000100000001000000000000E0
:100D100000010000000100010001000000000000CF
:100D200000000000000000000000000000000000C3
:100D300000000000000000000000000000000000B3
:100D4000000100000001000100010001000100019C
:100D5000000100000001000100010001000100018C
:100D6000000100010001000100000001000100007D
:100D7000000100010001000100000001000100016C
:100D8000000100010001000100010001000100005C
:100D9000000100010000000100010001000100004D
:100DA000000100010001000100000001000100013C
:100DB000000100000000000100010000000100012E
:100DC000000100010000000100010001000000011D
:100DD000000100010001000000000000000100000F
:100DE00000000001000000010001000000010000FF
:100DF00000000000000100000001000100010000EF
:100E000000000000000000000000000000000000E2
:100E100000000000000000000000000000000000D2
:100E200000000000000100000001000100010001BD
:100E300000010001000100000001000100010001AB
:100E4000000100010001000100010001000000019B
:100E5000000100000001000100010001000000018C
:100E6000000100010001000100010001000100017A
:100E7000000100000001000100000001000100016C
:100E8000000100000001000100010001000000015C
:100E9000000100010001000000000001000100004D
:100EA000000100010001000100000001000100013B
:100EB000000000010001000100010000000000002E
:100EC000000100000000000100000001000100001E
:100ED000000100000000000000010000000100010E
:100EE0000001000000000000000000000000000001
:100EF00000000000000000000000000000000000F2
:100F000000000000000000000012036B0065007983
:100F10000062006F0061007200640000001603713F
:100F2000006D006B006200750069006C0064006574
:100F300000720000000403090409026D00040100AE
:100F4000A0FA0904000001030101000921110100B8
:100F5000012240000705810308000A09040100017D
:100F600003010200092111010001224D0007058241
:100F70000308000A0904020001030000000921110E
:100F80000100012236000705830308000A09040353
:100F900000010300000009211101000122390007AE
:100FA0000584032000011201100100000008EDFE7D
:100FB000606001000102000105010906A1010507A9
:100FC00019E029E71500250195087501810205083A
:100FD0001901290595057501910295017503910186
:100FE0000507190029F71500250195F875018102FB
:100FF000C005010980A10185021601002603001A1F
:1010000081002A8300751095018100C0050C09013B
:10101000A1018503160100269C021A01002A9C02E8
:10102000751095018100C005010902A1010901A106
:10103000000509190129051500250195057501818E
:1010400002950175038101050109300931158125DA
:101050007F95027508810609381581257F950175F0
:10106000088106050C0A38021581257F950175084F
:101070008106C0C005010906A101050719E029E79D
:1010800015002501950875018102950175088101FA
:10109000050819012905950575019102950175034A
:1010A00091010507190029FF150026FF0095067517
:1010B000088100C011241FBECFEFDAE0DEBFCDBF34
:1010C00004B603FE27C08091950290919602A091EC
:1010D0009702B09198028730904BA740B04BD1F463
:1010E0001092950210929602109297021092980216
:1010F00014BE84B7877F84BF0FB6F894A8958091FB
:101100006000886180936000109260000FBEE0E094
:10111000F8E3099511E0A0E0B1E0EEE9FDE402C0DA
:1011200005900D92A034B107D9F722E0A0E4B1E018
:1011300001C01D92A539B207E1F70E94B81F0C94B7
:101140007E260C940000FC01613069F0662329F0D2
:10115000623079F090E080E0089582818823D1F3B5
:1011600080EC90E0089582818823A1F385EB90E0E4
:1011700008958281882371F38CEA90E008950895A0
:10118000089581E00895089581E008950C94C108C0
:101190000E9491122FEF84E39CE021508040904008
:1011A000E1F700C000000C94691AFF920F931F939F
:1011B000CF93DF938C01FC01C081D1818091A40188
:1011C00081113FC082818823B9F1CE010E94C117ED
:1011D000F82E682FCE010E946D17BE018F2D0E9440
:1011E0000A0AEC01B8010E94C608882309F44AC023
:1011F000B801CE010E94160C882309F443C0C53102
:10120000F0E7DF0718F5C23080E7D80708F04BC0D9
:10121000C115E0E7DE0789F1C130D047D1F181E0A7
:101220008093420180934301C801DF91CF911F91C8
:101230000F91FF900C94C408CE010E949917F82ECC
:10124000CCCFCE010E94C117BE01C9CFCC3380E7FD
:10125000D80709F49AC0CD33D04709F7F801828145
:10126000882309F4B9C0109243010E94101A909388
:1012700041018093400180E295C0F8018281811193
:101280000E94C80880E0DF91CF911F910F91FF90DD
:101290000895F80182818823A9F380915502816025
:1012A00080935502EFCFF8018281882309F4BCCFE7
:1012B0000E946F19811102C00E9455190E948C1959
:1012C00090E09093870280938602FE01E350F047FE
:1012D000809186028160E231F10538F4E058F94DE1
:1012E0000C942E26809186028260809386028091E3
:1012F00086020E9490190E949112C4CF80918602AA
:101300008460F3CF809186028860EFCF809186025F
:101310008061EBCF809186028062E7CF8091860268
:101320008064E3CF809186028068DFCF809186025F
:101330008C60DBCF809186028E7FD7CF8091860232
:101340008D7FD3CF809186028B7FCFCF8091860215
:10135000877FCBCF809186028F7EC7CF8091860218
:101360008F7DC3CF809186028F7BBFCF8091860215
:101370008F77BBCF80918602837FB7CF9091860213
:10138000892F97FB87F98058B0CFF8018281882395
:1013900061F0109242010E94101A909341018093D3
:1013A000400182E00E9447106DCF8091420181117F
:1013B0000FC080914001909141010E941C1A883C0D
:1013C000910530F486E20E941C0F86E20E94F80F1D
:1013D00082E00E944E1056CF8091430181110FC0D0
:1013E00080914001909141010E941C1A883C910516
:1013F00030F487E20E941C0F87E20E94F80F80E21F
:10140000E8CF0C94650C0C94670C0C94C3080C94F6
:10141000050A0895972F70E023E1929F600D711DDA
:101420001124FB0192E7899FE00DF11D1124EE0FBD
:10143000FF1FE753FF4F859194910895FC01EE0F34
:10144000FF1FE75FF04F8591949108950E940A0A6B
:101450000E949A0B811520E4920708F08FC0811535
:1014600040E3940708F0ECC0803E910508F073C09B
:10147000803C910508F0D0C0883A910590F4853AF7
:10148000910508F0CEC08130910509F470C0009735
:1014900009F46DC08430910508F069C090E080E0E7
:1014A00008958D3B9105D0F7883A910509F403C161
:1014B000893A910509F402C18A3A910509F401C1FA
:1014C0008B3A910509F400C18C3A910509F4FFC0EB
:1014D0008B3B910509F4FEC08C3B910509F4FDC0DE
:1014E0008D3A910509F4FCC0803B910509F4FBC0DD
:1014F0008E3A910509F4FAC08F3A910509F4F9C0C2
:10150000813B910509F4F8C0823B910509F4F7C0CD
:10151000833B910509F4F6C0843B910509F4F5C0BD
:10152000853B910509F4F4C0863B910509F4F3C0AD
:10153000873B910509F4F2C0883B910509F4F1C09D
:10154000893B910509F4F0C08A3B910509F4EFC08D
:1015500080E094E408958F3F910509F048F4803FBE
:10156000910508F069C0883E910508F097CF08956D
:10157000811560E2960708F061C00895811573E552
:10158000970770F5811522E5920708F064C0811570
:1015900041E5940708F05AC0811560E5960708F404
:1015A00052C09C0154E0369527955A95E1F7922F49
:1015B0009370282F26952695237070E2279F90011F
:1015C0001124392B837041E050E0BA0102C0660F4C
:1015D000771F8A95E2F7CB01822B932B9C680895A5
:1015E000811575E5970750F4811524E5920708F4F5
:1015F00043C0982F8827846F906A0895811546E527
:10160000940708F44DC09C0130569F70211530415D
:1016100008F044CF90620895805C91090E941E0AF0
:101620000895853A910509F440C0863A910509F07C
:101630003FC082E890E40895906508959F70EECFD2
:101640009927906C08959F70906A0895982F882725
:10165000816F906A0895AC014370552721E030E016
:1016600002C0220F331F4A95E2F78695869570E2F5
:10167000879FC0011124B0CFAC014370552721E0F2
:1016800030E002C0220F331F4A95E2F78695869517
:1016900040E2849FC0011124822B932B9A68089505
:1016A000982F882788279F71B5CF81E890E4089507
:1016B00083E890E4089582EE94E4089589EE94E43A
:1016C00008958AEE94E4089585EB94E4089586EBFA
:1016D00094E4089583EB94E4089584EB94E40895EE
:1016E00087EB94E408958CEC94E408958DEC94E4F5
:1016F000089583E895E408958AE895E4089582E9D9
:1017000095E4089584E995E4089581E296E40895C6
:1017100083E296E4089584E296E4089585E296E4EF
:10172000089586E296E4089587E296E408958AE2B1
:1017300096E41DCF8238910549F1B0F481339105CB
:1017400009F462C048F48932910509F456C08A321E
:10175000910509F460C008958533910509F446C0E8
:101760008933910599F00895833E910531F138F45C
:10177000803E910591F0823E9105B1F00895863E3C
:10178000910521F1873E910551F10895209186023E
:101790002370D9F080EE90E008952091860220FF1A
:1017A00014C089E390E008952091860222FF0DC0C5
:1017B00024FD09C083EE90E008952091860222FD69
:1017C00031C024FF02C090E080E00895209186029D
:1017D00023FFFBCF24FDF7CF87EE90E00895209103
:1017E000860223FFEECF86EE90E0089520918602D8
:1017F00025FFEBCF89E290E008952091860225FF36
:10180000E4CF85E390E008952091860226FFDDCFA6
:101810008AE290E008952091860226FFD6CF81E3E8
:1018200090E0089582EE90E0089508950F931F933D
:10183000CF938C01FB018281811106C0C1E08C2F06
:10184000CF911F910F910895C0915101C11125C0F1
:101850000531104799F70E94150C81E080935101E2
:101860000E94101A9093500180934F0110924401EE
:1018700010924601109245011092480110924701C2
:1018800010924A011092490110924C0110924B01A2
:1018900010924E0110924D01D2CF80914F01909144
:1018A00050010E941C1A883C910540F68091440129
:1018B000E82FF0E0EE0FFF1FEB5BFE4F118300837C
:1018C0008F5F80934401C0E0BACF0C94BF080C94A2
:1018D000C00885B7806885BF85B7806885BFA6E2E8
:1018E000B1E061E070E08D91E82FE295EF70F0E0FB
:1018F00041A18F709B0101C0220F8A95EAF7922FB8
:101900009095942391A382A1822B82A381E0AC3293
:10191000B80749F7A3E1B1E061E070E08D91E82FED
:10192000E295EF70F0E041A18F709B0101C0220FA2
:101930008A95EAF7922F9095942391A382A1822B06
:1019400082A381E0A632B80749F7EAE6F1E0A2E512
:10195000B1E082E891E011921192119211921D92E0
:101960001D921D921D928E179F07A9F70C94010AD4
:101970002F923F924F925F926F927F928F929F929F
:10198000AF92BF92CF92DF92EF92FF920F931F938D
:10199000CF93DF93CDB7DEB72B970FB6F894DEBFAA
:1019A0000FBECDBF82E5282E81E0382E06E211E081
:1019B0001E830D8338862F82C12CD12C7601C394CF
:1019C000AF81B8858D909D90AD90BC901397FD012F
:1019D0001192119211921192F887EF83AD81BE811D
:1019E0008D91BE83AD83E82FE295EF70F0E091A179
:1019F0008F7001E010E002C0000F111F8A95E2F71E
:101A00001A830983802F892B81A382A100950987DE
:101A1000802382A310EA1A95F1F723E131E03C8399
:101A20002B8390E080E00F811885045011091B87FB
:101A30000A87AB81BC817D90BC83AB83272D229527
:101A40002F7030E0D90190965C90AA85BB854D91AE
:101A50005D916D917C91272D2F7001E010E002C007
:101A6000000F111F2A95E2F79801252109F07AC08D
:101A700097018601082E04C0000F111F221F331F7B
:101A80000A94D2F728013901442955296629772972
:101A9000AA85BB854D935D936D937C9313970196B7
:101AA0008331910531F681A11985182311A382A1F3
:101AB000B9818B2B82A3EA85FB8580819181A281EC
:101AC000B38188169906AA06BB0649F0F1E0F093A7
:101AD00082010E94101A90938401809383010F81E8
:101AE00018850A56114009F06BCF80918201882336
:101AF000E9F080918301909184010E941C1A06975D
:101B0000A8F02AE631E0F10181919191A191B19182
:101B10001F01F90181939193A193B1939F01FAE67B
:101B20002F16F1E03F0679F7109282010E94030A16
:101B300081E02B960FB6F894DEBF0FBECDBFDF91CC
:101B4000CF911F910F91FF90EF90DF90CF90BF90BA
:101B5000AF909F908F907F906F905F904F903F904D
:101B60002F900895412C512C32018ECF94E0899F03
:101B7000F0011124E659FE4F6081718182819381C9
:101B80000895089590938A01809389010895E091C2
:101B90008901F0918A01309721F00190F081E02DC8
:101BA000099480E00895E0918901F0918A013097CD
:101BB00021F00280F381E02D09940895E0918901DC
:101BC000F0918A01309721F00480F581E02D09948D
:101BD000089520918701309188012817390771F005
:101BE0009093880180938701E0918901F0918A01A7
:101BF000309721F00680F781E02D09940895209117
:101C00008501309186012817390771F0909386017C
:101C100080938501E0918901F0918A01309721F04C
:101C20000084F185E02D0994089508950C94150E13
:101C30000E94071A0E94690C0C94D51A4F925F9269
:101C40006F927F928F929F92AF92BF92DF92EF92AC
:101C5000FF920F931F93CF93DF93CDB7DEB72A97F1
:101C60000FB6F894DEBF0FBECDBF0E94B80C2CE8B3
:101C7000E22E21E0F22E10E000E0D02E802F0E9414
:101C8000B60D4B015C01F70141905190619071904C
:101C90007F01481459046A047B0409F476C08091DA
:101CA000550281FD0E94C10D482459246A247B24D9
:101CB00090E080E0B301A201082E04C076956795FC
:101CC000579547950A94D2F740FF5AC08E83DF821A
:101CD000412C512C3201439404C0440C551C661C09
:101CE000771C8A95D2F784209520A620B72081E022
:101CF00089288A288B2809F480E088870E94101A96
:101D00008160782F9A8789874E815F8168858A856F
:101D10000E94F20E000F111F000F111FF801E4576F
:101D2000FE4F80819181A281B38184259525A625CE
:101D3000B72580839183A283B3830E94531D0E94A1
:101D4000C70D90918B018917B9F10E94C70D80933F
:101D50008B012A960FB6F894DEBF0FBECDBFDF9180
:101D6000CF911F910F91FF90EF90DF90BF90AF90B8
:101D70009F908F907F906F905F904F900C94070A88
:101D800001968331910509F095CF0F5F1F4F063003
:101D9000110509F072CF8FEF89838A831B820E941D
:101DA000101A8160782F9D838C8349815A816B81C1
:101DB0008D810E94F20EC1CF2A960FB6F894DEBF35
:101DC0000FBECDBFDF91CF911F910F91FF90EF908C
:101DD000DF90BF90AF909F908F907F906F905F90BB
:101DE0004F900895CF93DF93CDB7DEB72B970FB603
:101DF000F894DEBF0FBECDBF4F83588769877A87BF
:101E00008B871E821D8285E0FE013796DE011196CA
:101E100001900D928A95E1F749815A816B817C810D
:101E20008D819E812B960FB6F894DEBF0FBECDBF7D
:101E3000DF91CF910C942115882309F4D8C0823802
:101E400071F40E94C70D81FDD2C089E30E94611820
:101E50000E94261989E30E949E180C942619833843
:101E600059F40E94C70D80FDC2C083E50E9461182D
:101E70000E94261983E5EFCF843859F40E94C70DDC
:101E800082FDB5C087E40E9461180E94261987E48C
:101E9000E2CF9CEF980F913A18F40E946118DDCFC1
:101EA00090E2980F983050F4877091E001C0990F3C
:101EB0008A95EAF7892F0E94E018CFCF9BE5980F0B
:101EC000933070F4853A31F0863A39F083E890E047
:101ED0000C94E90D81E890E0FBCF82E890E0F8CF28
:101EE00098E5980F953108F082C0883A09F440C00F
:101EF000893A09F440C08A3A09F440C08B3A09F49F
:101F000040C08C3A09F440C08B3B09F440C08C3B84
:101F100009F440C08D3A09F440C0803B09F440C048
:101F20008E3A09F440C08F3A09F440C0813B09F46D
:101F300040C0823B09F440C0833B09F440C0843B6D
:101F400009F440C0853B09F440C0863B09F440C019
:101F5000873B09F440C0883B09F440C0893B09F441
:101F600040C08A3B09F440C090E080E00C94FF0D33
:101F700082EE90E0FBCF89EE90E0F8CF8AEE90E021
:101F8000F5CF85EB90E0F2CF86EB90E0EFCF83EBDF
:101F900090E0ECCF84EB90E0E9CF87EB90E0E6CFE8
:101FA0008CEC90E0E3CF8DEC90E0E0CF83E891E023
:101FB000DDCF8AE891E0DACF82E991E0D7CF84E9FA
:101FC00091E0D4CF81E292E0D1CF83E292E0CECF14
:101FD00084E292E0CBCF85E292E0C8CF86E292E045
:101FE000C5CF87E292E0C2CF8AE292E0BFCF0895E8
:101FF000882309F44BC0823871F40E94C70D81FF19
:1020000045C089E30E9461180E94261989E30E9455
:102010009E180C942619833859F40E94C70D80FF2E
:1020200035C083E50E9461180E94261983E5EFCF31
:10203000843859F40E94C70D82FF28C087E40E94AB
:1020400061180E94261987E4E2CF9CEF980F913A1D
:10205000F0F290E2980F983050F4877091E001C050
:10206000990F8A95EAF7892F0E94E618D2CF9BE54F
:10207000980F933020F490E080E00C94E90D885A9A
:10208000853120F490E080E00C94FF0D08958823C2
:1020900021F00E94E0180C9426190895882321F05D
:1020A0000E94E6180C94261908958F929F92AF9281
:1020B000BF92DF92EF92FF920F931F93CF93DF9324
:1020C0007C01D62FC72FFC01058102950F7012816C
:1020D00011110E94FD180E945A18D82E882371F001
:1020E0001123A1F080E28D0F883080F082E00E9401
:1020F00044180E945A1891E0D82ED926EC2FE29568
:10210000EF70F0E0EE56F94D0C942E26D12CF6CF60
:102110000C2F0F70C07F11F00295007F1123A9F0E2
:10212000002359F080E28D0F883010F0D11109C0E2
:10213000802F0E94E0180E9426198D2F0E941C0FEC
:1021400014C0802F0E94F018F6CF8D2F0E94F80F38
:10215000002359F080E28D0F883010F0D11124C097
:10216000802F0E94E6180E942619DD2009F48FC1F5
:102170000E94371880FD8BC1F70112820E9431182E
:102180000E94B116C7010E9453120E943118DF91BC
:10219000CF911F910F91FF90EF90DF90BF90AF9084
:1021A0009F908F900C94D216802F0E94F618DBCF50
:1021B000FC2FFF70BF2EC07FC03219F0B29480EFA9
:1021C000B822DD2369F0D13029F1112369F1002310
:1021D00059F0F701858180FFB0CF8F70858304C0EF
:1021E000112361F0011104C08B2D0E944710BDCF57
:1021F0008B2D0130D1F70E941019B7CF011106C005
:102200000E9413198B2D0E944E10AFCF013009F49C
:10221000ACCFF6CF112321F0063008F0A6CFE4CFE3
:10222000053008F0A2CFEECF002361F38D2F0E947E
:10223000F80F9BCF8C2F86958695837069F081303F
:1022400009F093CF8D2F9C2F9370111102C090E055
:1022500080E00E94FF0D89CF8D2F9C2F937011116C
:1022600002C090E080E00E94E90D7FCF8D2F112306
:1022700029F00E94611C0E94481D77CF0E94C91C52
:10228000FACF8C2F837009F047C011116ECF2D2F1C
:10229000229526952770220F220F6D2F6F70862EA4
:1022A000912CB12CA12C022E04C0880C991CAA1CC4
:1022B000BB1C0A94D2F760E070E0CB01D4FF0FC0E2
:1022C0006FE070E080E090E004C0660F771F881F29
:1022D000991F2A95D2F76095709580959095C6952F
:1022E000C695C370C23051F080F4682979298A29D3
:1022F0009B29C13071F00E945A1637CF682979297D
:102300008A299B290E94761630CF0E945A16C50151
:10231000B4010E943E1629CF8695112311F08C2F0F
:102320008170882309F421CF2D2F229526952770BF
:10233000220F220F6D2F6F70862E912CB12CA12CA5
:10234000022E04C0880C991CAA1CBB1C0A94D2F74C
:1023500060E070E0CB01D4FF0FC06FE070E080E080
:1023600090E004C0660F771F881F991F2A95D2F747
:102370006095709580959095C695C695C370C2304E
:1023800051F080F4682979298A299B29C13071F09C
:102390000E943417EACE682979298A299B290E944C
:1023A0005017E3CE0E943417C501B4010E941817DC
:1023B000DCCEE0E2ED0FE53108F04DC0F0E0EE5587
:1023C000F94D0C942E26DF708C2F8F71112321F084
:1023D0000E94B1168D2F09CF0E94D2168D2F13CFD8
:1023E000112341F0053008F0C0CE8C2F8F710E9470
:1023F000F716BBCE063008F0B8CEF7CF8C2F8F7112
:10240000112339F00E94B116B0CE8C2F8F71112399
:10241000C9F30E94D216A9CE112329F08C2F8F71F7
:102420000E949C16A2CE0E9492169FCE112349F0C4
:10243000CF718C2F0E94B11663E08C2F0E943B1845
:1024400094CE81E00E944418023008F48ECE82E0DF
:102450000E9444188ACE112329F001116ECE8C2FD0
:102460008F71D0CF0111E2CE8C2F8F71D2CF4C2F34
:102470004F706D2FC7010E94A3080E94BB1575CE37
:102480004C2F4F706D2FC7010E94090A6ECEDF914D
:10249000CF911F910F91FF90EF90DF90BF90AF9081
:1024A0009F908F9008950F931F93CF93DF93EC012C
:1024B0008B819C81892B29F08881998189238F3F89
:1024C00029F4DF91CF911F910F910895CE010E94C1
:1024D000D5088823B1F3688179818A810E940D181B
:1024E0008C010E946C170E943316B801CE01DF9157
:1024F000CF911F910F910C9455100E94FD180E94CE
:102500000D190E94D2180E9426190E94F41D0E94E3
:10251000481D90E080E00E94E90D90E080E00C947E
:10252000FF0D0E94ED180C947D120E940318E92FF4
:10253000E295EF70E250EE3070F4F0E0E954F94DBE
:102540000C942E26803F19F020F4803E20F481E088
:102550000895843FE1F380E00895803EC0F3813F19
:10256000D1F7F5CF93FB882780F90895CF93DF93B8
:1025700000D000D00F92CDB7DEB70F900F900F9024
:102580000F900F90DF91CF910895CF93DF9300D0FC
:1025900000D000D0CDB7DEB726960FB6F894DEBFD8
:1025A0000FBECDBFDF91CF9108951F93CF93DF93DF
:1025B000C091A50116E08091A6018C1304C0DF91A3
:1025C000CF911F910895D0E01C9FF0011D9FF00D49
:1025D0001124E955FE4F40815181628173818481CC
:1025E00095810E94C5122196C770E5CF4091D70111
:1025F0005091D8016091D9017091DA018091DB018D
:102600009091DC010C94C5121F93CF93DF938091BE
:10261000DC01807FC1F48091D9018823A1F08091F1
:10262000A501C091A6016091D7017091D801409198
:10263000DA015091DB01D62FD723DA01A095B095AE
:1026400016E0C81304C0DF91CF911F91089590E068
:102650004115510511F0DF3F31F401968770F1CF3C
:102660002A0F3B1F17C0189FF001199FF00D11246E
:10267000E955FE4F21812713F0CF20812613EDCF9E
:1026800022812111EACF238134812417350740F3B9
:10269000241B350B283C310500F72091DC012F70FD
:1026A00020612093DC0126E0289FF001299FF00D96
:1026B0001124E455FE4F80818F708061808387ED07
:1026C00091E00E945312DF91CF911F910C94D5128B
:1026D000BF92CF92DF92EF92FF920F931F93CF930F
:1026E000DF93CDB7DEB761970FB6F894DEBF0FBEAC
:1026F000CDBF8C0185E0F801DE011D9601900D92A1
:102700008A95E1F7D8014C9111965C911197129638
:10271000EC9012978091DA019091DB01009709F417
:102720007FC12091D7013091D801622F63236F3F81
:1027300009F476C11396CD90DC90B090D901BB20FE
:1027400009F413C1C816D906D0F1F601E81BF90B3C
:10275000CF01FF24F394883C910508F0F12C80917F
:10276000DC01982F907FFF2009F4B6C091117FC043
:10277000FE2C351329C0241327C0E11025C08F700B
:1027800080618093DC010E94F61287ED91E00E9447
:1027900053128091DC01D80115968C938F2D619690
:1027A0000FB6F894DEBF0FBECDBFDF91CF911F9162
:1027B0000F91FF90EF90DF90CF90BF90089580959C
:1027C00090958C0D9D1DC5CFCD2829F0852F842394
:1027D0008F3F09F033C180E0B82FB170DB2E80FF4E
:1027E0003CC08091A5012091A60136E0821315C05E
:1027F0004D875E878D859E850E940318292F22951F
:102800002F702230F0F0243018F59F70F1F0F801AD
:102810009581907FD1F4D12C1EC090E0389FF001BB
:10282000399FF00D1124E955FE4F6181651306C0F3
:102830006081641303C06281E6120FC00196877045
:10284000D5CF9F7011F0882331F3805E883018F364
:10285000C8010E945312FD2CA1CFEE2009F49ECF97
:102860008091DC0181608093DC01F12C97CF3513DE
:1028700006C0241304C0D801EE2009F49CC04D8783
:102880005E878D859E850E949512882309F4D2C0AB
:10289000EE2009F4CFC08091DC01803270F02091ED
:1028A000D7013091D80138872F831986DB86CA86F5
:1028B0008C87CE0107960E94531286E0F801A7ED9F
:1028C000B1E001900D928A95E1F70E9404130E94F5
:1028D000F612FF24F39462CF911115C07C2DD98A92
:1028E000C88A6E2D89890E94B61287ED91E00E94F8
:1028F000531286E0E7EDF1E0DF011D928A95E9F7DA
:102900000E94F6124BCF351312C0241310C0E110F1
:102910000EC0F8018583C8010E945312E7EDF1E073
:1029200086E0DF011D928A95E9F7FB2C37CF4D87B2
:102930005E878D859E850E949512882309F47AC052
:10294000EE2009F477C08091DC01803208F4B5CF25
:102950002091D7013091D8013A8329831B82DD82EF
:10296000CC828E83CE010196A6CFC816D90688F1F7
:10297000F601E81BF90BCF01F12C883C910508F01A
:1029800047C0FE2CEE2009F455C0351330C0241387
:102990002EC08091DC0180FD21C0982F907FF1F046
:1029A000D80115968C931597903F39F0982F907F0A
:1029B000905F8F70892B15968C93C8010E945312DB
:1029C00086E0F801A7EDB1E001900D928A95E1F75C
:1029D00097CF809590958C0D9D1DCECF86E0F80108
:1029E000A7EDB1E001900D928A95E1F7D7CE4D8722
:1029F0005E878D859E850E94951281115ECF8091A4
:102A0000DC0181608093DC01C8010E945312C6CEB4
:102A10007C2DD98AC88A6E2D89890E94B61269CF09
:102A2000EE2041F04D875E878D859E850E94951230
:102A3000811143CFC8010E9453124BCF81E08E25F4
:102A4000CBCE1F93CF93DF93CDB7DEB72C970FB6C6
:102A5000F894DEBF0FBECDBF4F83588769877A8752
:102A60008B879C87CE0107960E946813882369F0A4
:102A70008A859B85892B39F04F815885842F852342
:102A80008F3F09F071C016E05FC086E0FE01379607
:102A9000DE01119601900D928A95E1F78A859B855A
:102AA000892B89F38F81988589238F3F61F320914A
:102AB000A60130E0C9010196877099274091A501D0
:102AC0004817190671F40E9491121092A6011092F3
:102AD000A50186E0E7EDF1E0DF011D928A95E9F7B7
:102AE000D2CF96E0929FD001939FB00D1124A955AB
:102AF000BE4FFE01319601900D929A95E1F78093B9
:102B0000A6010E94D512BFCF819FC0011124895513
:102B10009E4F0E9468138823E9F0E091A5011E9F53
:102B2000F0011124E955FE4F40815181628173818A
:102B3000848195810E94C5128091A50190E0019643
:102B4000877099278093A5018091A5019091A60196
:102B50008913DACF2C960FB6F894DEBF0FBECDBF27
:102B6000DF91CF911F91089569857A858B859C852A
:102B70000E94C51288CFEF92FF920F931F93CF93BD
:102B8000DF938C01892B81F0F12CEE24E394E80192
:102B90002196F8018491843770F4843008F05FC086
:102BA0008130B1F08230A1F1DF91CF911F910F916F
:102BB000FF90EF900895853709F44CC008F43DC0AC
:102BC0009CE7980F903780F78F770E94F80F49C0E5
:102BD0000E5F1F4FFE01849190E2980F983060F4D1
:102BE0008770FE2D01C0FF0F8A95EAF78F2F0E9494
:102BF00000190E94261902C00E941C0F8F2D8150BF
:102C000030F2EFE9FFE03197F1F700C00000F7CFB5
:102C10000E5F1F4FFE01849190E2980F983050F4A0
:102C20008770FE2D01C0FF0F8A95EAF78F2F0E9453
:102C30000619DFCF0E94F80FE1CF0E5F1F4FFE0194
:102C4000C491C150D8F28FE99FE00197F1F700C01D
:102C50000000F7CF0E5F1F4FFE01F490CFCF0E9410
:102C60001C0F8E01CBCF089560932C0270932D0220
:102C700080932E0290932F020C947D120F931F933A
:102C800000912C0210912D0220912E0230912F02E2
:102C9000DC01CB01802B912BA22BB32B80932C0238
:102CA00090932D02A0932E02B0932F021F910F91AB
:102CB0000C947D120F931F9300912C0210912D0202
:102CC00020912E0230912F02DC01CB018023912331
:102CD000A223B32380932C0290932D02A0932E0263
:102CE000B0932F021F910F910C947D120F931F939D
:102CF00000912C0210912D0220912E0230912F0272
:102D0000DC01CB0180279127A227B32780932C02D7
:102D100090932D02A0932E02B0932F021F910F913A
:102D20000C947D12109228021092290210922A020D
:102D300010922B020C947D1241E050E060E070E0B4
:102D400004C0440F551F661F771F8A95D2F7409322
:102D500028025093290260932A0270932B020C944C
:102D60007D1241E050E060E070E004C0440F551F68
:102D7000661F771F8A95D2F78091280290912902C9
:102D8000A0912A02B0912B02842B952BA62BB72B56
:102D90008093280290932902A0932A02B0932B02D9
:102DA0000C947D1241E050E060E070E004C0440FFC
:102DB000551F661F771F8A95D2F7409550956095ED
:102DC00070958091280290912902A0912A02B091D9
:102DD0002B0284239523A623B72380932802909364
:102DE0002902A0932A02B0932B020C947D1241E099
:102DF00050E060E070E004C0440F551F661F771F6D
:102E00008A95D2F78091280290912902A0912A02F6
:102E1000B0912B0284279527A627B72780932802F5
:102E200090932902A0932A02B0932B020C947D1256
:102E30000F931F93009128021091290220912A02DA
:102E400030912B02DC01CB01802B912BA22BB32BD9
:102E50008093280290932902A0932A02B0932B0218
:102E60001F910F910C947D120F931F9300912802D4
:102E70001091290220912A0230912B02DC01CB0112
:102E800080239123A223B3238093280290932902C5
:102E9000A0932A02B0932B021F910F910C947D12E4
:102EA0000F931F93009128021091290220912A026A
:102EB00030912B02DC01CB0180279127A227B32779
:102EC0008093280290932902A0932A02B0932B02A8
:102ED0001F910F910C947D12089523E1929F800D14
:102EE0001124982F977041E001C0440F9A95EAF79A
:102EF00086958695869595E0899FF0011124E35289
:102F0000FE4F90E080E070E05191DF0111979B014E
:102F1000082E02C0369527950A94E2F72170219574
:102F20002527242325272C9301968530910561F7C9
:102F3000089523E1929F800D1124982F9770869514
:102F40008695869525E0829FF0011124E352FE4F7D
:102F500050E040E080E0219130E0092E02C036953B
:102F600027950A94E2F721703327042E01C0220F1F
:102F70000A94EAF7822B4F5F5F4F4530510559F7AE
:102F80000895BF92CF92DF92EF92FF920F931F931B
:102F9000CF93DF938C01C0902802D0902902E0905B
:102FA0002A02F0902B0280912C0290912D02A09188
:102FB0002E02B0912F02C82AD92AEA2AFB2ACFE191
:102FC000D0E0BC2ED701C6010C2E04C0B695A79543
:102FD000979587950A94D2F780FD0EC0219788F7C0
:102FE000B12C8B2DDF91CF911F910F91FF90EF901E
:102FF000DF90CF90BF900895B8018C2F0E94260AD1
:10300000019761F3EECFCF93DF93EC010E94C117DC
:10301000BE01DF91CF910C94260A1F93CF93DF93CB
:10302000EB019091A401992331F0CB01DF91CF9175
:103030001F910C940318882379F0CB010E94C117CB
:10304000182F682FCE010E946D17BE01812FDF91CE
:10305000CF911F910C94260ACB010E949917182F2B
:10306000F4CF80913002859585958595089580915E
:1030700030028770089598E0899F90011124622B97
:10308000609330020C94B1169091300280958923A0
:1030900080933002282F277061F4282F082E000C0F
:1030A000330B9217130629F08595859585950C9419
:1030B000D216089590913002977081E009F480E073
:1030C0000895909112019923E1F09091860297FF63
:1030D00018C0E82FE695E695E695EF3139F1209195
:1030E000000130910101E20FF32FF11D877021E003
:1030F00030E001C0220F8A95EAF78181822B81831B
:1031000008952091000130910101F90132969FEF5D
:1031100040E05191851751F09F3F19F4511101C0C2
:10312000942F4F5F4E31A9F79F3F09F40895290F5F
:10313000311D97FD3A95F90182830895909112010E
:103140009923F1F09091860297FF1AC0E82FE69537
:10315000E695E695EF3129F12091000130910101CA
:10316000E20FF32FF11D282F277081E090E001C0BE
:10317000880F2A95EAF780959181892381830895A4
:103180002091000130910101F9013296205E3F4FFC
:103190009191891303C0DF0111971C92E217F30785
:1031A000B9F7089581E090E0E0910001F09101010C
:1031B000E80FF91F1082019680329105A9F7089552
:1031C00090915402892B8093540208958095909198
:1031D0005402982390935402089510925402089533
:1031E00090915302892B809353020895809590917A
:1031F0005302982390935302089510925302089516
:1032000090915202892B809352020895809590915B
:1032100052029823909352020895109252020895F8
:103220008093310208951092310208952091000197
:1032300030910101F9013196205E3F4F80E091917C
:1032400091118F5FE217F307D1F70895E091000124
:10325000F0910101809154028083E0910001F0918E
:103260000101808190915302892B8083E0910001BC
:10327000F0910101808190915202892B808390917D
:103280003102992361F0E0910001F0910101808108
:10329000892B80830E94161981111092310280912E
:1032A0000001909101010C94D30D6DEE7EEF90E042
:1032B00080E00E94682660E082E090E00E9456264E
:1032C00060E083E090E00E94562660E084E090E0B9
:1032D0000E94562660E085E090E00C94562690E02F
:1032E00080E00E94502621E08D3E9E4F09F020E0B4
:1032F000822F089582E090E00C944826682F82E0A7
:1033000090E00C94562683E090E00C944826682FB9
:1033100083E090E00C94562684E090E00C944826DC
:10332000682F84E090E00C94562680918C028430C3
:1033300039F11092560288E190E020E40FB6F8943B
:10334000A895809360000FBE2093600080E00E94EB
:10335000070A83B7817F846083BF83B7816083BF9F
:103360007894889583B78E7F83BF0FB6F894A8951D
:1033700080916000886180936000109260000FBEB1
:10338000089508950895CF930E94C1190E94B80C22
:103390000E94C219C0E08C2F0E94B60D672B682BCB
:1033A000692B31F4CF5FC630B1F780E0CF9108953B
:1033B00081E0FCCF0E9491120E94C70D0C94070A75
:1033C0001F921FB61F9211248F939F93AF93BF93A9
:1033D00080915602811113C08091820290918302E4
:1033E000A0918402B09185024196A11DB11D8093E8
:1033F000820290938302A0938402B0938502BF91CE
:10340000AF919F918F911F901FBE1F90189582E0E2
:1034100084BD93E095BD9AEF97BD80936E000895AB
:103420002FB7F8948091820290918302A091840238
:10343000B09185022FBF0895CF92DF92EF92FF9255
:103440000F931F932FB7F8944091820250918302FB
:1034500060918402709185022FBF6A017B01EE2486
:10346000FF248C0130E020E0C016D106E206F3060E
:1034700050F0481B590BCA011F910F91FF90EF901C
:10348000DF90CF90089541505109F3CF1F921FB69E
:103490001F9211248F939F93AF93BF9380918202C9
:1034A00090918302A0918402B09185020196A11DA2
:1034B000B11D8093820290938302A0938402B09303
:1034C0008502BF91AF919F918F911F901FBE1F905A
:1034D00018950E94F021F8942FEF87EA91E6215089
:1034E00080409040E1F700C0000087E090EBDC01F5
:1034F0008093950290939602A0939702B0939802BE
:1035000088E19CE00FB6F894A895809360000FBE08
:1035100090936000FFCF8F929F92AF92BF92EF92F5
:10352000FF920F931F93CF93C0E0E82EF12C8C2FC6
:103530000E94B60D4B015C0110E000E0D501C40112
:10354000002E04C0B695A795979587950A94D2F753
:1035500080FD13C00F5F1F4F0331110579F7CF5F57
:10356000C63029F780E0CF911F910F91FF90EF9027
:10357000BF90AF909F908F900895602F7C2F80E038
:103580000E940A0AE816F90629F781E0ECCFCF93EA
:10359000C82F8CE20E948B1A882321F08C2FCF91A8
:1035A0000C948B1A80E0CF910895CF930E946F19ED
:1035B000811102C00E945519C5E608C00E94B80CCE
:1035C0008FE39CE90197F1F700C00000C150B1F70B
:1035D00089E20E94C71A8111EFC08AE20E94C71ACD
:1035E00081110E94551985E00E94C71A81110E941D
:1035F000691A0E947A198093550287E00E94C71ABF
:10360000882371F08BE10E94C71A882309F4B1C0A6
:1036100090915502892F8D7F91FF82608093550292
:10362000809155020E947E190E948C1990E090931F
:1036300087028093860280EE0E94C71A882341F099
:1036400090918602892F8E7F90FF81608093860201
:1036500089E30E94C71A882341F090918602892F3E
:103660008D7F91FF82608093860282EE0E94C71A4E
:10367000882341F090918602892F8B7F92FF84608E
:103680008093860286EE0E94C71A882341F09091AB
:103690008602892F877F93FF88608093860283EE5E
:1036A0000E94C71A882341F090918602892F8F7E4D
:1036B00094FF80618093860285E30E94C71A882365
:1036C00041F090918602892F8F7D95FF80628093D3
:1036D000860281E30E94C71A882341F090918602F6
:1036E000892F8F7B96FF80648093860281E10E9400
:1036F000C71A882341F090918602892F97FB87F99A
:10370000805880938602809186020E94901987E2F9
:103710000E94C71AC82F8EE10E94C71A8111C26089
:103720008FE10E94C71A8111C46080E20E94C71A0B
:103730008111C86081E20E94C71A8111C06182E2D2
:103740000E94C71A8111C06283E20E94C71A8111C8
:10375000C06484E20E94C71A882341F1C0688C2F9C
:103760000E9487196C2F70E090E080E0CF910C945C
:1037700034168EE00E94C71A882339F090915502C2
:10378000892F8B7F92FF846049CF80E10E94C71A06
:1037900090915502882329F0892F877F93FF8860B5
:1037A0003DCF892F8E7F90FF816038CFC111D7CF59
:1037B0000E948319682FD7CFCF9108958091590225
:1037C00080FF12C06091050185E0689FB00111245F
:1037D000759567957595679560387105A8F56115BC
:1037E0007105A1F1862F089581FF09C0609105013F
:1037F00085E0689FB001112475956795EDCF6091C4
:10380000050182FD0AC080915A028823D1F090916F
:10381000040160910501891728F085E0689FB001D7
:103820001124DACF869FB001112485E0869F900194
:10383000879F300D1124692F70E0C9010E941A265C
:10384000CBCF65E070E0CECF8FE7089581E008959B
:103850008091590280FF0CC06091030170E0759562
:103860006795759567956115710549F1862F0895DE
:1038700081FF06C06091030170E075956795F3CFF5
:103880006091030182FD0BC090915A029923A1F02F
:103890006091020180910301961738F0682F70E063
:1038A0006038710500F38FE70895899FC0011124E6
:1038B00070E00E941A26F4CF61E070E0D7CF81E07B
:1038C0000895803F31F40E94DE1B819580935D0254
:1038D0000895813F19F40E94DE1BF8CF823F31F436
:1038E0000E94DE1B819580935C020895833F19F44A
:1038F0000E94DE1BF8CF893F29F40E94281C809388
:103900005E0208958A3F21F40E94281C8195F7CF1A
:103910008B3F31F40E94281C819580935F020895AB
:103920008C3F19F40E94281CF8CF843F31F4809119
:103930005B02816080935B020895853F21F4809152
:103940005B028260F7CF863F21F480915B02846046
:10395000F1CF873F21F480915B028860EBCF883FF5
:1039600021F480915B028061E5CF8D3F31F480913D
:10397000590281608093590208958E3F21F480910D
:1039800059028260F7CF8F3FB9F780915902846066
:10399000F1CF90915C02803F41F480915D0287FD00
:1039A00010925D02992371F00895813F29F480916E
:1039B0005D021816ACF3F6CF823F81F497FFF2CF89
:1039C00010925C0280915D0290915E02892B909131
:1039D0005F02892B49F710925A020895833F19F428
:1039E000191674F3DFCF893F39F480915E021816FF
:1039F000CCF610925E02D6CF8A3F29F480915E0207
:103A000087FFD0CFF6CF8B3F39F480915F0287FFDD
:103A1000C9CF10925F02C6CF8C3F29F480915F021C
:103A20001816BCF3BFCF843F31F480915B028E7FC8
:103A300080935B02B7CF853F21F480915B028D7F3D
:103A4000F7CF863F21F480915B028B7FF1CF873FD8
:103A500021F480915B02877FEBCF883F21F4809136
:103A60005B028F7EE5CF8D3F31F4809159028E7FCE
:103A70008093590297CF8E3F21F4809159028D7F18
:103A8000F7CF8F3F09F08ECF809159028B7FF0CF17
:103A90008BE592E00E94DE0D0E94101A909358026E
:103AA0008093570208951F93CF93DF93809157021D
:103AB000909158020E941C1AAC0190915A022091D8
:103AC000060130E0911106C0209107018AE0289F8D
:103AD000900111244217530778F020915C02C091A5
:103AE0005D02D0915E0210915F02211109C08C2FFE
:103AF0008D2B812B09F074C0DF91CF911F91089518
:103B00009F3F19F09F5F90935A02121624F40E946F
:103B1000DE1B80935C0280915C0287FF05C00E94DF
:103B2000DE1B819580935C021C1624F40E94DE1B30
:103B300080935D0280915D0287FF05C00E94DE1BBD
:103B4000819580935D0260915C02662331F1C091A2
:103B50005D02CC2311F1062E000C770B880B990B1C
:103B60000E94212523E333E343E35FE30E9485259D
:103B70000E94E92460935C026C2FCC0F770B880BBA
:103B8000990B0E94212523E333E343E35FE30E9483
:103B900085250E94E92460935D021D1624F40E948D
:103BA000281C80935E0280915E0287FF05C00E9400
:103BB000281C819580935E02111624F40E94281C13
:103BC00080935F0280915F0287FF05C00E94281CDE
:103BD000819580935F02DF91CF911F910C94481DD6
:103BE0009F3F09F08FCFA0CF85E0EBE5F2E0DF014A
:103BF0001D928A95E9F710925A021092590208957F
:103C0000809180020895CF93DF9300D00F92CDB7BB
:103C1000DEB79C0180918C02843019F593E0998382
:103C20003B832A839093E9008FEF9091E8008150C5
:103C300095FD06C095ED9A95F1F700008111F5CF3D
:103C40008091E80085FF0DC050E040E063E070E047
:103C5000CE0101960E9460208091E8008E778093CB
:103C6000E8000F900F900F90DF91CF910895CF93C0
:103C7000DF9300D00F92CDB7DEB720918C022430B5
:103C800031F522E02983805891099B838A8383E060
:103C90008093E9008FEF9091E800815095FD06C078
:103CA00095ED9A95F1F700008111F5CF8091E8002C
:103CB00085FF0DC050E040E063E070E0CE0101966A
:103CC0000E9460208091E8008E778093E8000F903A
:103CD0000F900F90DF91CF9108959C0180918C02FD
:103CE0008430F9F482E08093E9009FEF8091E8004E
:103CF000915085FD06C085ED8A95F1F70000911180
:103D0000F5CF8091E80085FF0CC050E040E065E011
:103D100070E0C9010E9460208091E8008E77809356
:103D2000E8000895CF93DF93EC0180918C028430FA
:103D3000F1F4909112019923E9F09091860297FF96
:103D400019C08093E9008FEF9091E800815095FDB4
:103D500006C095E19A95F1F700008111F5CF8091A9
:103D6000E80050E040E060E270E085FD1AC0DF91BD
:103D7000CF91089581E08093E9008FEF9091E80062
:103D8000815095FD06C095ED9A95F1F700008111DF
:103D9000F5CF8091E80085FFEACF50E040E068E091
:103DA00070E0CE010E9460208091E8008E778093C1
:103DB000E80080E2FE01A0E6B2E001900D928A9553
:103DC000E1F7D5CF80918B02811109C00E94F021CB
:103DD0000E944D228091E20084608093E200089569
:103DE00010928B020895089508950C94DA1942E018
:103DF00061EC81E00E946C2142E061EC82E00E9473
:103E00006C2142E061EC83E00E946C2142E261ECB3
:103E100084E00C946C2180918E02833009F455C0AB
:103E200030F4813071F1823009F491C008958A3004
:103E300009F47DC08B3009F463C0893009F044C0B7
:103E400080918D02813209F03FC080919102909162
:103E50009202009711F00397B9F58091E800877FEF
:103E60008093E8008091E80082FF2AC08091F100F1
:103E7000809380028091E8008B778093E8000C9417
:103E8000A02180918D02813AF9F48091E800877F2A
:103E90008093E8008091910290919202892B61F4C5
:103EA00060E280E692E070E00E94AF208091E8003E
:103EB0008B778093E800089560E090E080E0F3CF96
:103EC00080918C028111CECF089580918D02813A2C
:103ED000D9F78091910290919202892BA9F7809154
:103EE000E800877F8093E8008091E80080FFFCCFA6
:103EF000809112018093F1008091E8008E77BDCF10
:103F000080918D02813201F780919102909192020D
:103F1000892BD1F68091E800877F8093E8000E948A
:103F2000A02180918F02809312010C9491128091B4
:103F30008D02813249F68091E800877F8093E80006
:103F40000E94A02180919002809381020895809127
:103F50008D02813A09F0B8CF8091E800877F809385
:103F6000E8008091E80080FFFCCF80918102C2CF01
:103F700084B7877F84BF0FB6F894A89580916000BE
:103F8000886180936000109260000FBE80E880938B
:103F90006100109261000E94160E0E94F0210E94A2
:103FA0004D228091E20084608093E20078940E9428
:103FB000CE240E94180E88E091E00E94C20D8091EC
:103FC0008C02853019F00E941E0EF9CF0E949519BF
:103FD00080918A02882399F30E94C319882379F378
:103FE0000E944A20ECCF292F33272330310521F1BD
:103FF00068F42130310509F443C02230310509F459
:1040000044C090E080E030E020E026C0213231055D
:1040100051F122323105A9F7643098F770E0FB01C5
:10402000EE0FFF1FE05DFE4F20813181645D7E4F0A
:10403000FB01808190E010C099278130910581F0CB
:10404000009729F00297E9F6E9E0FFE002C0E5E316
:10405000FFE0849190E09F01FA013183208308956D
:10406000EDE1FFE0F6CF643060F6E62FF0E0EE0F12
:10407000FF1FE85CFE4F2081318189E090E0ECCFAA
:1040800082E190E026EA3FE0E7CF8DE690E029E389
:104090003FE0E2CF80E189BD82E189BD09B400FE45
:1040A000FDCF8091D8008F7D8093D8008091E00073
:1040B00082608093E0008091E00081FDFCCF089554
:1040C000AF92BF92CF92DF92FF920F931F93CF9345
:1040D000DF936C01EB018A010E94BF21F82E811150
:1040E00023C00115110539F0F80180819181C81BA9
:1040F000D90BC80ED91EB12CA12C2097A9F0809104
:10410000E80085FD22C08091E8008E778093E8006A
:1041100001151105A1F0F80180819181A80EB91E49
:10412000B182A08285E0F82E8F2DDF91CF911F9173
:104130000F91FF90DF90CF90BF90AF9008950E94B5
:10414000BF218823D1F2F82EEFCFF60181916F01C4
:104150008093F1002197FFEFAF1ABF0ACECFFC0189
:10416000809193029091940286179707A0F06115B1
:10417000710529F49091E8009E779093E80090E013
:104180006115710551F4911108C08091E80082FF1A
:1041900034C080E00895BC01F2CF80918C02882366
:1041A000C1F18530C1F18091E80083FD30C080917C
:1041B000E80082FDEACF8091E80080FFE1CF8091A6
:1041C000F3002091F200382F6115710519F02830A5
:1041D000310558F091E02830310509F090E0209148
:1041E000E8002E772093E800CBCF81918093F100F7
:1041F000615071092F5F3F4FE7CF80918C02882378
:1042000041F0853041F08091E80083FFBECF81E02E
:10421000089582E0089583E00895FC01809193025F
:104220009091940286179707A0F06115710529F403
:104230008091E8008E778093E80090E06115710529
:1042400051F4911108C08091E80082FF35C080E0F0
:104250000895BC01F2CF80918C028823C9F185308A
:10426000C9F18091E80083FD31C08091E80082FDB2
:10427000EACF8091E80080FFE1CF8091F3002091A8
:10428000F200382F6115710519F02830310558F00A
:1042900091E02830310509F090E08091E8008E77B8
:1042A0008093E800CBCF84918093F10031966150E8
:1042B00071092F5F3F4FE6CF80918C02882341F038
:1042C000853041F08091E80083FFBDCF81E0089503
:1042D00082E0089583E00895982F973028F08F703A
:1042E0008093E90081E008959093E900242F762FD0
:1042F00050E0981731F07091EC002091ED00509152
:10430000F00021FD02C09F5FE8CF3091EB003E7FBF
:104310003093EB003091ED003D7F3093ED00309114
:10432000EB0031603093EB007093EC002093ED00D4
:104330005093F0002091EE0027FDE5CF80E0089536
:1043400080918D0287FF13C08091E80082FF06C034
:104350008091E8008B778093E80004C080918C0204
:104360008111F2CF089580918C028823D9F3809136
:10437000E80080FFF8CF8091E8008E77ECCF2091A5
:10438000E4003091E50095E6A9012091EC00822F30
:10439000817020FF06C08091E80080FF06C080E0A9
:1043A00008952091E80022FD1AC080918C02882394
:1043B00089F0853089F08091EB0085FD0FC0209158
:1043C000E4003091E50042175307F9F29150E1F60D
:1043D00084E0089582E0089583E0089581E00895DF
:1043E0000E945E220E946622E0EEF0E08081816001
:1043F0008083E8EDF0E080818F77808319BCA7EDA2
:10440000B0E08C918E7F8C9380818F7E8083109220
:104410008B0208950F931F93CF93DF930E945E2228
:104420000E946622C8EDD0E088818F7788838881DA
:104430008068888388818F7D888319BC10928C0264
:104440001092880210928A021092890200EE10E007
:10445000F80180818B7F808388818160888342E03E
:1044600060E080E00E946C21E1EEF0E080818E7FD0
:104470008083E2EEF0E080818160808380818860CB
:104480008083F80180818E7F80838881806188832A
:10449000DF91CF911F910F910895E8EDF0E08081B9
:1044A0008F7E8083E7EDF0E080818160808384E00F
:1044B00082BF81E080938B020C940A22E8EDF0E049
:1044C00080818E7F80831092E20008951092DA003E
:1044D0001092E10008951F920F920FB60F921124CF
:1044E0002F933F934F935F936F937F938F939F93FC
:1044F000AF93BF93EF93FF938091E10082FF0BC0D6
:104500008091E20082FF07C08091E1008B7F809361
:10451000E1000E94CD248091DA0080FF19C08091D3
:10452000D80080FF15C08091DA008E7F8093DA007A
:104530008091D90080FF96C080E189BD82E189BD6C
:1045400009B400FEFDCF81E080938C020E94E21E40
:104550008091E10080FF19C08091E20080FF15C0CA
:104560008091E2008E7F8093E2008091E200806182
:104570008093E2008091D80080628093D80019BCBB
:1045800085E080938C020E94F41E8091E10084FFFC
:104590002BC08091E20084FF27C080E189BD82E1C9
:1045A00089BD89B5982F917080FFFBCF8091D8008D
:1045B0008F7D8093D8008091E1008F7E8093E10011
:1045C0008091E2008F7E8093E2008091E200816022
:1045D0008093E20080918802882309F449C084E036
:1045E00080938C020E94F51E8091E10083FF29C018
:1045F0008091E20083FF25C08091E100877F809356
:10460000E10082E080938C02109288028091E100A8
:104610008E7F8093E1008091E2008E7F8093E200A4
:104620008091E20080618093E20042E060E080E0FF
:104630000E946C218091F00088608093F0000E94BD
:10464000F31EFF91EF91BF91AF919F918F917F9159
:104650006F915F914F913F912F910F900FBE0F90EF
:104660001F90189519BC10928C020E94F01E70CFFA
:104670008091E30087FD93E090938C02B3CF1F926B
:104680000F920FB60F9211242F933F934F935F9386
:104690006F937F938F939F93AF93BF93CF93DF934A
:1046A000EF93FF93D091E900DF708091EC00C82F69
:1046B000C17080FDC0E81092E9008091F000877F12
:1046C0008093F00078940E9483231092E9008091F7
:1046D000F00088608093F000CD2BCF70C093E9008C
:1046E000FF91EF91DF91CF91BF91AF919F918F910A
:1046F0007F916F915F914F913F912F910F900FBEDE
:104700000F901F9018951F93CF93DF93CDB7DEB70F
:10471000AA970FB6F894DEBF0FBECDBF8DE892E02A
:104720002091F100FC012193CF01F2E085399F0730
:10473000B9F70E940B1F8091E80083FF16C180919A
:104740008D0290918E029A3008F00FC1E92FF0E0AF
:10475000EB53F94D0C942E26803881F0823809F005
:1047600004C1809191028F708093E9008091EB00E9
:1047700085FB882780F91092E90006C080918902A4
:1047800090918A02911182609091E800977F9093B6
:10479000E8008093F1001092F1008091E8008E779C
:1047A000E0C0882309F4CEC0823009F0DEC08091D9
:1047B0008F028111D1C0809191028F7009F4D5C010
:1047C0008093E9002091EB0020FFC6C0933031F4C4
:1047D0008091EB0080628093EB00BEC09091EB0073
:1047E00090619093EB0021E030E001C0220F8A95A8
:1047F000EAF72093EA001092EA008091EB008860CB
:10480000EACF8111B2C010918F021F778091E3002F
:104810008078812B8093E3008091E800877F8093EC
:10482000E8000E94A0218091E80080FFFCCF8091E9
:10483000E30080688093E30082E0111183E08093BD
:104840008C0293C08058823008F08FC080918F0214
:10485000909190028C3D23E09207A1F583E08A833A
:104860008AE289834FB7F894DE01139620E03EE098
:1048700051E2E32FF0E050935700E49120FF03C092
:10488000E295EF703F5FEF708E2F90E0EA30C0F05E
:10489000C7968D939D932F5F243159F74FBF809119
:1048A000E800877F8093E8006AE270E0CE0101961D
:1048B0000E94AF208091E8008B778093E80055C07C
:1048C000C096E7CFAE014F5F5F4F609191020E94AB
:1048D000F31FBC01892B09F448C09091E800977F31
:1048E0009093E80089819A810E940D21E3CF80385E
:1048F000E1F58091E800877F8093E800809188024D
:104900008093F1004ACF811130C090918F02923094
:1049100060F58091E800877F8093E800909388029B
:104920000E94A02180918802882311F084E005C0B4
:104930008091E30087FDFACF81E080938C020E9492
:10494000F71E13C080918F02813079F481E093309B
:1049500009F080E080938A021092E9008091E800DB
:10496000877F8093E8000E94A0218091E80083FF68
:104970000AC08091E800877F8093E8008091EB0077
:1049800080628093EB00AA960FB6F894DEBF0FBE4C
:10499000CDBFDF91CF911F9108950895CF9380915E
:1049A0008C028823A1F0C091E900CF709091EC00B7
:1049B000892F817090FD80E8C82B1092E9008091CA
:1049C000E80083FD0E948323CF70C093E900CF915C
:1049D00008950E94F0246894B1110C947F250895E5
:1049E0000E94642588F09F5798F0B92F9927B751F6
:1049F000B0F0E1F0660F771F881F991F1AF0BA9583
:104A0000C9F714C0B13091F00E947E25B1E008953D
:104A10000C947E25672F782F8827B85F39F0B93F2F
:104A2000CCF3869577956795B395D9F73EF4909535
:104A30008095709561957F4F8F4F9F4F0895E894B3
:104A400009C097FB3EF490958095709561957F4FD6
:104A50008F4F9F4F9923A9F0F92F96E9BB27939584
:104A6000F695879577956795B795F111F8CFFAF494
:104A7000BB0F11F460FF1BC06F5F7F4F8F4F9F4FC5
:104A800016C0882311F096E911C0772321F09EE823
:104A9000872F762F05C0662371F096E8862F70E089
:104AA00060E02AF09A95660F771F881FDAF7880F63
:104AB0009695879597F9089557FD9058440F551F7F
:104AC00059F05F3F71F04795880F97FB991F61F090
:104AD0009F3F79F087950895121613061406551F07
:104AE000F2CF4695F1DF08C0161617061806991F73
:104AF000F1CF86957105610508940895E894BB2768
:104B000066277727CB0197F908950E9498250C9482
:104B100009260E94FB2538F00E94022620F09523EA
:104B200011F00C94F2250C94F82511240C947F2597
:104B30000E945C2570F3959FC1F3950F50E0551FBF
:104B4000629FF001729FBB27F00DB11D639FAA27E2
:104B5000F00DB11DAA1F649F6627B00DA11D661F31
:104B6000829F2227B00DA11D621F739FB00DA11D52
:104B7000621F839FA00D611D221F749F3327A00D0C
:104B8000611D231F849F600D211D822F762F6A2FA8
:104B900011249F5750409AF0F1F088234AF0EE0F0D
:104BA000FF1FBB1F661F771F881F91505040A9F73A
:104BB0009E3F510580F00C94F2250C947F255F3FB9
:104BC000E4F3983ED4F3869577956795B795F79576
:104BD000E7959F5FC1F7FE2B880F911D96958795EE
:104BE00097F9089597F99F6780E870E060E008956D
:104BF0009FEF80EC089500240A94161617061806F5
:104C00000906089500240A941216130614060506D0
:104C10000895092E0394000C11F4882352F0BB0F61
:104C200040F4BF2B11F460FF04C06F5F7F4F8F4FC4
:104C30009F4F089597FB072E16F4009407D077FD39
:104C400009D00E94342607FC05D03EF4909581954A
:104C50009F4F0895709561957F4F0895EE0FFF1F48
:104C60000590F491E02D0994AA1BBB1B51E107C0EC
:104C7000AA1FBB1FA617B70710F0A61BB70B881FEC
:104C8000991F5A95A9F780959095BC01CD0108957B
:104C9000F999FECF92BD81BDF89A992780B5089504
:104CA000A8E1B0E042E050E00C947026262FF9997C
:104CB000FECF92BD81BDF89A019700B4021639F07B
:104CC0001FBA20BD0FB6F894FA9AF99A0FBE08954C
:104CD0000196272F0E9457260C945626DC01CB0103
:104CE000FC01F999FECF06C0F2BDE1BDF89A3196FC
:104CF00000B40D9241505040B8F70895F894FFCF9A
:104D000072097E09820986098A098E099209960923
:104D10009A099E09A209A609AA09AE09B209B6090B
:104D2000BA09BE0988108810D810D8101A11361187
:104D3000B510B5104111B510D911D9113712B510F0
:104D4000B5104012E311E311E311E311E311E31194
:104D5000E311E311E311E311E311E311E311E311B3
:104D6000E311E311F011FE1105120C121612A2123A
:104D7000A212AB12AB12AD12AB12AB12AB12A2125B
:104D8000A212B212AB12AB12B212AC23D123B524D1
:0E4D9000D123B52401242224B52477248324C2
:104D9E0032022808140A321E001E921E6D1E371E85
:104DAE00031E0136F03534979694956730669392CC
:104DBE00919037333231F1F4F5F6F7C7404D36396D
:104DCE0074102710F10FB80F4B0F640F7D0F960F55
:00000001FF
